S015000046696E616C5F70726F6A6563742E73726563CF
S3150800000000500020992B0008112B0008132B00081C
S31508000010152B0008172B0008192B000800000000F4
S31508000020000000000000000000000000B16F00089A
S315080000301B2B0008000000004170000885700008AE
S31508000040E12B0008E12B0008E12B0008E12B000852
S31508000050E12B0008E12B0008E12B0008E12B000842
S31508000060E12B0008E12B00081D2B0008252B0008B2
S31508000070E12B0008E12B0008E12B0008312B0008D2
S31508000080E12B0008E12B0008E12B0008E12B000812
S31508000090E12B0008E12B0008E12B0008E12B000802
S315080000A0E12B00083D2B0008E12B0008E12B000896
S315080000B0492B0008E12B0008E12B0008E12B00087A
S315080000C0E12B0008E12B0008E12B0008E12B0008D2
S315080000D0E12B0008E12B0008E12B0008E12B0008C2
S315080000E0E12B0008E12B0008E12B000800000000C6
S315080000F000000000000000000000000000000000F2
S3110800010000000000000000005FF808F195
S3150800011010B5054C237833B9044B13B10448AFF333
S3150800012000800123237010BDB000002000000000ED
S31508000130CC91000808B5034B1BB103490348AFF33C
S31508000140008008BD00000000B4000020CC91000823
S31508000150034613F8012B002AFBD1181A01387047F9
S3150800016081F0004102E000BF83F0004330B54FEA5A
S3150800017041044FEA430594EA050F08BF90EA020FC7
S315080001801FBF54EA000C55EA020C7FEA645C7FEA5A
S31508000190655C00F0E2804FEA5454D4EB5555B8BF7D
S315080001A06D420CDD2C4480EA020281EA030382EAEE
S315080001B0000083EA010180EA020281EA0303362D80
S315080001C088BF30BD11F0004F4FEA01314FF4801C53
S315080001D04CEA113102D0404261EB410113F0004F65
S315080001E04FEA03334CEA133302D0524263EB43031C
S315080001F094EA050F00F0A780A4F10104D5F1200EBA
S315080002000DDB02FA0EFC22FA05F2801841F1000114
S3150800021003FA0EF2801843FA05F359410EE0A5F1E8
S3150800022020050EF1200E012A03FA0EFC28BF4CF019
S31508000230020C43FA05F3C01851EBE37101F00045CF
S3150800024007D54FF0000EDCF1000C7EEB00006EEBDC
S315080002500101B1F5801F1BD3B1F5001F0CD3490866
S315080002605FEA30004FEA3C0C04F101044FEA4452BD
S3150800027012F5800F80F09A80BCF1004F08BF5FEA44
S31508000280500C50F1000041EB045141EA050130BD24
S315080002905FEA4C0C404141EB0101013C28BFB1F536
S315080002A0801FE9D291F0000F04BF01460020B1FA81
S315080002B081F308BF2033A3F10B03B3F120020CDA54
S315080002C00C3208DD02F1140CC2F10C0201FA0CF032
S315080002D021FA02F10CE002F11402D8BFC2F1200C97
S315080002E001FA02F120FA0CFCDCBF41EA0C0190404D
S315080002F0E41AA2BF01EB0451294330BD6FEA040496
S315080003001F3C1CDA0C340EDC04F11404C4F1200280
S3150800031020FA04F001FA02F340EA030021FA04F392
S3150800032045EA030130BDC4F10C04C4F1200220FAE9
S3150800033002F001FA04F340EA0300294630BD21FA27
S3150800034004F0294630BD94F0000F83F4801306BFED
S3150800035081F480110134013D4EE77FEA645C18BFE1
S315080003607FEA655C29D094EA050F08BF90EA020F78
S3150800037005D054EA000C04BF1946104630BD91EA70
S31508000380030F1EBF0021002030BD5FEA545C05D173
S315080003904000494128BF41F0004130BD14F58004B2
S315080003A03CBF01F5801130BD01F0004545F0FE4126
S315080003B041F470014FF0000030BD7FEA645C1ABF5B
S315080003C0194610467FEA655C1CBF0B46024650EA92
S315080003D0013406BF52EA033591EA030F41F40021BE
S315080003E030BD00BF90F0000F04BF0021704730B544
S315080003F04FF4806404F132044FF000054FF0000119
S3150800040050E700BF90F0000F04BF0021704730B5D9
S315080004104FF4806404F1320410F0004548BF4042AE
S315080004204FF000013EE700BF42004FEAE2014FEA03
S3150800043031014FEA02701FBF12F07F4393F07F4FDE
S3150800044081F06051704732F07F4208BF704793F0E1
S315080004507F4F04BF41F40021704730B54FF46074F4
S3150800046001F0004521F000411CE700BF50EA0102F7
S3150800047008BF704730B54FF000050AE050EA0102A0
S3150800048008BF704730B511F0004502D5404261EB10
S3150800049041014FF4806404F132045FEA915C3FF451
S315080004A0D8AE4FF003025FEADC0C18BF03325FEAEE
S315080004B0DC0C18BF033202EBDC02C2F1200300FA9F
S315080004C003FC20FA02F001FA03FE40EA0E0021FAC4
S315080004D002F11444BDE600BF70B54FF0FF0C4CF4B2
S315080004E0E06C1CEA11541DBF1CEA135594EA0C0F64
S315080004F095EA0C0F00F0DEF82C4481EA030621EA9F
S315080005004C5123EA4C5350EA013518BF52EA0335D9
S3150800051041F4801143F4801338D0A0FB02CE4FF08B
S315080005200005E1FB02E506F00042E0FB03E54FF0BB
S315080005300006E1FB03569CF0000F18BF4EF0010EB3
S31508000540A4F1FF04B6F5007F64F5407404D25FEAAF
S315080005504E0E6D4146EB060642EAC62141EA555162
S315080005604FEAC52040EA5E504FEACE2EB4F1FD0CA4
S3150800057088BFBCF5E06F1ED8BEF1004F08BF5FEA22
S31508000580500E50F1000041EB045170BD06F00046D4
S3150800059046EA010140EA020081EA0301B4EB5C0481
S315080005A0C2BFD4EB0C0541EA045170BD41F4801179
S315080005B04FF0000E013C00F3AB8014F1360FDEBF9E
S315080005C0002001F0004170BDC4F10004203C35DA7A
S315080005D00C341BDC04F11404C4F1200500FA05F3FD
S315080005E020FA04F001FA05F240EA020001F000429E
S315080005F021F0004110EBD37021FA04F642EB060114
S315080006005EEA430E08BF20EAD37070BDC4F10C043D
S31508000610C4F1200500FA04F320FA05F001FA04F201
S3150800062040EA020001F0004110EBD37041F10001ED
S315080006305EEA430E08BF20EAD37070BDC4F12005F8
S3150800064000FA05F24EEA020E20FA04F301FA05F260
S3150800065043EA020321FA04F001F0004121FA04F208
S3150800066020EA020000EBD3705EEA430E08BF20EAD8
S31508000670D37070BD94F0000F0FD101F00046400012
S3150800068041EB010111F4801F08BF013CF7D041EA94
S31508000690060195F0000F18BF704703F00046520098
S315080006A043EB030313F4801F08BF013DF7D043EA69
S315080006B00603704794EA0C0F0CEA135518BF95EA1F
S315080006C00C0F0CD050EA410618BF52EA4306D1D1A6
S315080006D081EA030101F000414FF0000070BD50EAC5
S315080006E0410606BF1046194652EA430619D094EA4F
S315080006F00C0F02D150EA013613D195EA0C0F05D139
S3150800070052EA03361CBF104619460AD181EA03018C
S3150800071001F0004141F0FE4141F470014FF0000044
S3150800072070BD41F0FE4141F4780170BD70B54FF0DF
S31508000730FF0C4CF4E06C1CEA11541DBF1CEA13555F
S3150800074094EA0C0F95EA0C0F00F0A7F8A4EB050441
S3150800075081EA030E52EA03354FEA013100F0888038
S315080007604FEA03334FF0805545EA131343EA126301
S315080007704FEA022245EA111545EA10654FEA0026B6
S315080007800EF000419D4208BF964244F1FD0404F56F
S31508000790407402D25B084FEA3202B61A65EB0305CB
S315080007A05B084FEA32024FF480104FF4002CB6EB88
S315080007B0020E75EB030E22BFB61A754640EA0C0008
S315080007C05B084FEA3202B6EB020E75EB030E22BF48
S315080007D0B61A754640EA5C005B084FEA3202B6EB89
S315080007E0020E75EB030E22BFB61A754640EA9C0048
S315080007F05B084FEA3202B6EB020E75EB030E22BF18
S31508000800B61A754640EADC0055EA060E18D04FEAD5
S31508000810051545EA16754FEA06164FEAC30343EA75
S3150800082052734FEAC2025FEA1C1CC0D111F4801F42
S315080008300BD141EA00014FF000004FF0004CB6E73B
S3150800084011F4801F04BF01430020B4F1FD0C88BFDA
S31508000850BCF5E06F3FF6AFAEB5EB030C04BFB6EBE5
S31508000860020C5FEA500C50F1000041EB045170BDD8
S315080008700EF0004E4EEA113114EB5C04C2BFD4EB05
S315080008800C0541EA045170BD41F480114FF0000E89
S31508000890013C90E645EA060E8DE60CEA135594EA05
S315080008A00C0F08BF95EA0C0F3FF43BAF94EA0C0F08
S315080008B00AD150EA01347FF434AF95EA0C0F7FF47D
S315080008C025AF104619462CE795EA0C0F06D152EAD1
S315080008D003353FF4FDAE1046194622E750EA4106B5
S315080008E018BF52EA43067FF4C5AE50EA41047FF4C6
S315080008F00DAF52EA43057FF4EBAE12E74FF0FF3C2B
S3150800090006E000BF4FF0010C02E000BF4FF0010CFB
S315080009104DF804CD4FEA410C7FEA6C5C4FEA430C74
S3150800092018BF7FEA6C5C1BD001B050EA410C0CBFC3
S3150800093052EA430C91EA030F02BF90EA020F002025
S31508000940704710F1000F91EA030F58BF994208BF8C
S3150800095090422CBFD8176FEAE37040F00100704749
S315080009604FEA410C7FEA6C5C02D150EA013C07D1A0
S315080009704FEA430C7FEA6C5CD6D152EA033CD3D0EB
S315080009805DF8040B704700BF8446104662468C46E5
S315080009901946634600E000BF01B5FFF7B7FF002818
S315080009A048BF10F1000F01BD4DF808EDFFF7F4FF41
S315080009B00CBF012000205DF808FB00BF4DF808EDCC
S315080009C0FFF7EAFF34BF012000205DF808FB00BFEF
S315080009D04DF808EDFFF7E0FF94BF012000205DF811
S315080009E008FB00BF4DF808EDFFF7CEFF94BF0120C6
S315080009F000205DF808FB00BF4DF808EDFFF7C4FFBF
S31508000A0034BF012000205DF808FB00BF4FEA410C07
S31508000A107FEA6C5C02D150EA013C0AD14FEA430CEA
S31508000A207FEA6C5C02D152EA033C02D14FF0000027
S31508000A3070474FF0010070474FEA410212F5001265
S31508000A4015D211D56FF47873B3EB625212D94FEA07
S31508000A50C12343F0004343EA505311F0004F23FAF1
S31508000A6002F018BF404270474FF00000704750EA46
S31508000A70013005D111F0004008BF6FF00040704703
S31508000A804FF00000704700BF4A0011D212F500125D
S31508000A9011D20DD56FF47873B3EB62520ED44FEAC8
S31508000AA0C12343F0004343EA505323FA02F0704748
S31508000AB04FF00000704750EA013002D14FF0FF3086
S31508000AC070474FF0000070474FEA4102B2F1E04329
S31508000AD024BFB3F5001CDCF1FE5C0DD901F0004C17
S31508000AE04FEAC0024CEA5070B2F1004F40EB830067
S31508000AF008BF20F00100704711F0804F21D113F193
S31508000B003872BCBF01F00040704741F480114FEACB
S31508000B105252C2F11802C2F1200C10FA0CF320FA54
S31508000B2002F018BF40F001004FEAC1234FEAD32371
S31508000B3003FA0CFC40EA0C0023FA02F34FEA4303DB
S31508000B40CCE77FEA625307D150EA01331EBF4FF064
S31508000B50FE4040F44000704701F0004040F0FE407F
S31508000B6040F40000704700BF80F0004002E000BF7C
S31508000B7081F0004142001FBF5FEA410392EA030F7A
S31508000B807FEA226C7FEA236C6AD04FEA1262D2EBC4
S31508000B901363C1BFD218414048404140B8BF5B42C9
S31508000BA0192B88BF704710F0004F40F4000020F062
S31508000BB07F4018BF404211F0004F41F4000121F078
S31508000BC07F4118BF494292EA030F3FD0A2F10102C2
S31508000BD041FA03FC10EB0C00C3F1200301FA03F100
S31508000BE000F0004302D5494260EB4000B0F5000F23
S31508000BF013D3B0F1807F06D340084FEA310102F1E2
S31508000C000102FE2A51D2B1F1004F40EBC25008BF93
S31508000C1020F0010040EA03007047490040EB00005D
S31508000C20013A28BFB0F5000FEDD2B0FA80FCACF15E
S31508000C30080CB2EB0C0200FA0CF0AABF00EBC2508B
S31508000C4052421843BCBFD0401843704792F0000F79
S31508000C5081F4000106BF80F400000132013BB5E7CC
S31508000C604FEA41037FEA226C18BF7FEA236C21D042
S31508000C7092EA030F04D092F0000F08BF08467047A7
S31508000C8090EA010F1CBF0020704712F07F4F04D175
S31508000C90400028BF40F00040704712F100723CBF88
S31508000CA000F50000704700F0004343F0FE4040F4B2
S31508000CB0000070477FEA226216BF08467FEA236370
S31508000CC00146420206BF5FEA412390EA010F40F45B
S31508000CD0800070474FF0000304E000BF10F00043A7
S31508000CE048BF40425FEA000C08BF704743F096438E
S31508000CF001464FF000001CE050EA010208BF7047A9
S31508000D004FF000030AE000BF50EA010208BF70472F
S31508000D1011F0004302D5404261EB41015FEA010C44
S31508000D2002BF84460146002043F0B64308BFA3F13C
S31508000D308053A3F50003BCFA8CF2083AA3EBC2531E
S31508000D4010DB01FA02FC634400FA02FCC2F120023D
S31508000D50BCF1004F20FA02F243EB020008BF20F074
S31508000D600100704702F1200201FA02FCC2F12002DA
S31508000D7050EA4C0021FA02F243EB020008BF20EACF
S31508000D80DC70704742000ED2B2F1FE4F0BD34FF023
S31508000D909E03B3EB126209D44FEA002343F00043E3
S31508000DA023FA02F070474FF00000704712F1610F06
S31508000DB001D1420202D14FF0FF3070474FF00000D8
S31508000DC0704700BF10B501210A4802F071FB80B1D7
S31508000DD0094C0A4A23460121064802F0EBFA94F91F
S31508000DE00020074B1A606278064B1A70A278064BE9
S31508000DF01A7010BD60020020E8000020CC00002018
S31508000E00000000201C010020140100201D4B2DE9C4
S31508000E10F0411B681C4CDFF8748023701C4B064697
S31508000E201B68D8F8000063701A4B0F461B681546F6
S31508000E30A370194B1B68E370184B9B792371FFF756
S31508000E40A1FF6071D8F80800FFF79CFF0023A07186
S31508000E50134C144827616360E360266002F085FA44
S31508000E6028B12A462146104B0E4802F032FA0E4D9A
S31508000E700C4C2046296802F08CFA0028F9D1BDE806
S31508000E80F08100BF2401002008010020440500204D
S31508000E90240200202802002020010020280100202A
S31508000EA0F0000020600200201001002010B5032386
S31508000EB04FF0FF3486B0CDE9013405AB00930A2222
S31508000EC001233C210D4803F07BF89DF81430482B8C
S31508000ED012D19DF81530342B0ED19DF81630332BD0
S31508000EE00AD101230294002402223C21CDE90043C1
S31508000EF0024802F0D5FF204606B010BD10030020B8
S31508000F0070B50E46FFF77EFA04460D463046FFF7E3
S31508000F1079FA22462B4606F0F2FF0022104BFFF71D
S31508000F20DBFA0DA3D3E90023FFF700FC0022002318
S31508000F3004460D46FFF742FD58B1002220462946D1
S31508000F40084BFFF713F9FFF79FFD074BC0B29871DF
S31508000F5070BD20462946F6E7182D4454FB21094062
S31508000F60008066400080764028010020002310B5E6
S31508000F7086B04FF0FF320493ADF814300623CDE95E
S31508000F80013204AB0093032201233C210C4803F0F1
S31508000F9017F8044680B9BDF81010BDF81400094BBF
S31508000FA0BDF8122049BA40BA198052BA588009B217
S31508000FB000B29A80FFF7A4FF204606B010BD00BF16
S31508000FC010030020280100200021014804F0D8BAA7
S31508000FD0040400204FF4FA625043B422B0FBF2F046
S31508000FE0024B00F5FA701B6858637047040400202A
S31508000FF0034B01221988034B186802F099BC00BFFD
S315080010006401002068010020034B01221988034B64
S31508001010186802F08DBC00BF62010020680100203C
S31508001020024608B1FFF7E4BF024B1988024B18685D
S3150800103002F07EBC6401002068010020024608B167
S31508001040FFF7E2BF024B1988024B186802F070BC22
S31508001050620100206801002013B50446002004F050
S315080010601F04FFF7DDFF8DF804400A4C01A964232D
S315080010700122204603F0DBFC642301220DF1050161
S31508001080204603F07DFE9DF80540FFF7B1FF204698
S3150800109002B010BD6C01002073B504460D46164615
S315080010A0002004F01F04FFF7BBFF8DF80440084C2E
S315080010B001A964230122204603F0B9FC64233246C1
S315080010C02946204603F05CFEFFF792FF02B070BD8A
S315080010D06C01002037B504460D460020FFF7A0FF37
S315080010E044F020046423022201A905488DF804402F
S315080010F08DF8055003F09BFCFFF77AFF03B030BD6F
S315080011006C01002073B504460D461646002044F0CF
S315080011102004FFF785FF8DF80440084C01A96423D5
S315080011200122204603F083FC6423324629462046E2
S3150800113003F07DFCFFF75CFF02B070BD6C01002078
S3150800114073B50F4B04461D7800208D4228BF0D4607
S31508001150FFF766FF61230B4E8DF807300DF1070187
S3150800116064230122304603F062FC64232A462146A2
S31508001170304603F005FEFFF73BFF02B070BD00BF27
S315080011800C0200206C010020FF21E120FFF7A2BF1E
S31508001190FF21E220FFF79EBF0720FFF75DBF000093
S315080011A008B50020FFF758FF40F00301C9B2002038
S315080011B0FFF790FF0849D1E90032134303D005220F
S315080011C00A20FFF79FFFFFF7DFFFFFF7E1FFBDE804
S315080011D00840FFF719BF00BF1002002013B50446E8
S315080011E0CDE90023E8B919461046124BC3E90001B8
S315080011F005226946104B185DFFF784FF0F4B1978D7
S315080012000F4B185DFFF766FF0220FFF725FF012346
S31508001210A34040EA0301C9B20220FFF75BFF02B010
S3150800122010BD0628FBD8044B012C185CE0D001221F
S315080012306946E1E710020020069600080C02002025
S315080012400D9600087F28014628BF7F210520FFF755
S3150800125041BF6020FFF700BF10B5FFF771FF1720E9
S31508001260FFF7FAFE0446FFF793FFFFF7F2FF04F0D5
S31508001270010010BD08B51D20FFF7EEFE00F0FB01CA
S315080012801D20FFF727FFBDE8084000211C20FFF7B7
S3150800129021BF014600B13F210120FFF71BBF10B552
S315080012A004460620FFF7D8FE032C00F0F90102D108
S315080012B041F006010AE0022C06D0042CF8D0012CD5
S315080012C004D141F0020101E041F004010620BDE825
S315080012D01040FFF7FFBE38B505460620FFF7BCFEEF
S315080012E0022D00F0D7040CD144F020042146062034
S315080012F0FFF7F0FE0620FFF7AFFE031B58425841E2
S3150800130038BD012D08BF44F00804EFE710B50446C0
S315080013100020FFF7A1FE00F0F3012CB1012C0CBF51
S3150800132041F0080141F00C010020BDE81040FFF72C
S31508001330D1BE08B50020FFF78FFEBDE8084000F0D3
S31508001340FD010020FFF7C6BE70B50546FFF724FF6E
S3150800135000F04003002B044614BF012600260DD0DA
S3150800136015B1C0F342032B7040210720FFF7B2FEE8
S31508001370A30603D520210720FFF7ACFE304670BD33
S315080013800020FFF7E1BF70B5164604460D4600205B
S31508001390FFF746FE202E04F007003246294628BFEE
S315080013A0202240F0A800FFF7ADFEBDE87040FFF729
S315080013B01FBE70210720FFF78DBE000007B500206D
S315080013C0FFF72EFE47F250330222ADF8043001A98A
S315080013D06423044803F02BFBFFF70AFE03B05DF80D
S315080013E004FB00BF6C01002010B5A0B0BC4907A8DB
S315080013F006F020F907A8FEF7ABFE0A2382B207A972
S31508001400B84804F0BCF90020FFF726FE040740F1AF
S31508001410328240074CBFB449B44907A806F00AF916
S3150800142007A8FEF795FE0A2382B207A9AD4804F07D
S31508001430A6F90120FFF710FEC0F340130393C0F38B
S3150800144000130293C0F3C0030193C0F3800300F0B6
S315080014500102A7490093C0F3400307A806F040F825
S3150800146007A8FEF775FE0A2382B207A99D4804F06D
S3150800147086F90220FFF7F0FDC0F340130393C0F38B
S3150800148000130293C0F3C0030193C0F3800300F076
S31508001490010298490093C0F3400307A806F020F814
S315080014A007A8FEF755FE0A2382B207A98D4804F05D
S315080014B066F90320FFF7D0FD00F003028E490232D9
S315080014C007A806F00DF807A8FEF742FE0A2382B21F
S315080014D007A9844804F053F90520FFF7BDFD87499D
S315080014E000F07F0207A805F0FBFF07A8FEF730FE0D
S315080014F007A982B20A237B4804F041F90620FFF7C0
S31508001500ABFD01074CBF7E497E49044607A806F095
S3150800151091F807A8FEF71CFE0A2382B207A97148AC
S3150800152004F02DF914F0060FC4F3410340F0A58129
S31508001530754907A806F07EF807A8FEF709FE0A23EC
S3150800154082B207A9674804F01AF905A905220A20F4
S31508001550FFF7A2FD9DF814309DF8182002939DF818
S3150800156015306A4901939DF8163007A800939DF82F
S31508001570173005F0B5FF07A8FEF7EAFD0A2382B281
S3150800158007A9584804F0FBF805A905220B20FFF720
S3150800159083FD9DF814309DF8182002939DF81530A8
S315080015A05B4901939DF8163007A800939DF81730FC
S315080015B005F096FF07A8FEF7CBFD0A2382B207A916
S315080015C0484804F0DCF805A901220C20FFF764FD61
S315080015D09DF814204F4907A805F082FF07A8FEF7D3
S315080015E0B7FD0A2382B207A93E4804F0C8F805A940
S315080015F001220D20FFF750FD9DF81420464907A843
S3150800160005F06EFF07A8FEF7A3FD0A2382B207A915
S31508001610344804F0B4F805A901220E20FFF73CFD72
S315080016209DF814203D4907A805F05AFF07A8FEF7BC
S315080016308FFD0A2382B207A92A4804F0A0F805A953
S3150800164001220F20FFF728FD9DF81420344907A82A
S3150800165005F046FF07A8FEF77BFD0A2382B207A915
S31508001660204804F08CF805A905221020FFF714FD80
S315080016709DF814309DF8182002939DF815302949D5
S3150800168001939DF8163007A800939DF8173005F0CA
S3150800169027FF07A8FEF75CFD0A2382B207A91148AF
S315080016A004F06DF81120FFF7D7FC1F4900F03F0240
S315080016B007A805F015FF07A8FEF74AFD0A2382B218
S315080016C007A9084804F05BF81220FFF7C5FC17497C
S315080016D000F03F0207A805F003FF07A828E000BFAF
S315080016E0E8910008C40100201B9200083792000800
S315080016F066920008AA920008F39200080C93000864
S315080017001F930008369300084D9300089A93000823
S31508001710CA930008FA930008229400084A9400081D
S31508001720729400089A940008C4940008DD9400088E
S31508001730FEF70EFD0A2382B207A9544804F01FF8E3
S315080017401320FFF789FC524900F03F0207A805F06D
S31508001750C7FE07A8FEF7FCFC0A2382B207A94B4876
S3150800176004F00DF81420FFF777FC4A4900F03F0211
S3150800177007A805F0B5FE07A8FEF7EAFC0A2382B219
S3150800178007A9424803F0FBFF1520FFF765FC42490D
S3150800179000F03F0207A805F0A3FE07A8FEF7D8FC4D
S315080017A00A2382B207A9394803F0E9FF1620FFF792
S315080017B053FC3A4900F03F0207A805F091FE07A836
S315080017C0FEF7C6FC07A982B20A23304803F0D7FF02
S315080017D01C20FFF741FCC0F340130393C0F300132A
S315080017E00293C0F3C0030193C0F3800300F0010223
S315080017F02B490093C0F3400307A805F071FE07A81C
S31508001800FEF7A6FC07A982B20A23204803F0B7FF11
S315080018101D20FFF721FC42074CBF224922490446F6
S3150800182007A805F007FF07A8FEF792FC07A90A23F1
S3150800183082B2164803F0A3FFA3074CBF1B491C49F5
S3150800184007A805F0F7FE07A8FEF782FC0A2382B26E
S3150800185007A90E4803F093FF164907A805F0EAFE04
S3150800186007A8FEF775FC0A2382B207A9074803F002
S3150800187086FF20B010BD1049CFE5012B01D10F49D5
S3150800188057E6022B0CBF0E490E4952E6C40100204A
S31508001890F69400080F950008289500084195000859
S315080018A05A950008A4950008BA950008D19500082D
S315080018B0EB950008E8910008529200086193000829
S315080018C0759300088893000882B073B506460D46DE
S315080018D0144606A9582241F8043F564805F0B2FEB8
S315080018E0554B1E60554B1D80554B4FF0E7351C80F8
S315080018F0FFF77EFB0020FFF7A1FB052001F096F914
S3150800190008210020FFF7E6FB3F210120FFF7E2FB55
S3150800191003210220FFF7DEFB0321E7240846FFF731
S31508001920D9FB03210420FFF7D5FB02210520FFF789
S31508001930D1FB0F210620FFF7CDFB0E210720FFF76D
S31508001940C9FB00210820FFF7C5FB00210920FFF786
S31508001950C1FB694605220A2000958DF80440FFF769
S31508001960D1FB4FF0C2330093C223052269460B20F0
S315080019708DF80430FFF7C6FBC3210C20FFF7AAFB3E
S31508001980C4210D20FFF7A6FBC5210E20FFF7A2FBF9
S31508001990C6210F20FFF79EFB0522694610200095F9
S315080019A08DF80440FFF7AEFB00211120FFF792FBEC
S315080019B000211220FFF78EFB00211320FFF78AFB78
S315080019C000211420FFF786FB00211520FFF782FB74
S315080019D000211620FFF77EFBFFF7F0FC00211C20F4
S315080019E0FFF778FB00211D20FFF774FBFFF7FCFCCF
S315080019F0FF210420FFF76EFB0320FFF750FC0120B0
S31508001A00FFF769FC0220FFF781FCFFF733FC202271
S31508001A100C4B1A70FFF7CDFC4C20FFF713FCFFF7B1
S31508001A20B3FBFFF7B5FBFFF784FC02B0BDE87040D7
S31508001A3002B070476C010020680100206401002094
S31508001A40620100200C02002084B008B50DF1080CD4
S31508001A508CE80F0048226146034805F0F3FDBDE80F
S31508001A60084004B0704700BFC401002070B51B4C85
S31508001A7096B0211D5422684605F0E4FD23686C469D
S31508001A80174E4FF400624FF48061164806F11005B0
S31508001A90FFF71AFF0FCD0FC40FCD0FC40FCD0FC41C
S31508001AA095E8030084E8030096E80F00FFF7CCFFEB
S31508001AB0FFF79AFC0020FFF7ECFB3420FFF7C2FB88
S31508001AC02022094B01201A70084BD3E90023FFF79F
S31508001AD085FB16B0BDE87040FFF762BB64030020C3
S31508001AE094040020000C01400C020020080000208D
S31508001AF008B5174B1868FEF775FC0FA3D3E9002342
S31508001B00FEF7EAFC02460B460DA1D1E90001FEF7F5
S31508001B102BFB0DA3D3E90023FEF708FE00220D4B8D
S31508001B20FEF724FBFEF7B0FF0B4B18601868FFF7AB
S31508001B30D1F808BDAFF300806666666666664A3FFA
S31508001B40E17A14AE47E1F63F22FDF675E09C713F57
S31508001B5018020020000039402802002007B5074E69
S31508001B60074D084C2B46224607490848009600F0C0
S31508001B70CBFC4FF4FA7004F079FEF3E780050020F9
S31508001B80DC040020440500204C040020CC02002080
S31508001B90642208B5054B1A60054B064A1A60FFF71A
S31508001BA0A7FF4FF4FA7004F061FEF8E7240200205C
S31508001BB0200200200000C84208B5FFF777F9FFF7B2
S31508001BC0D5F94FF4FA7004F051FEF8E708B507485E
S31508001BD001F051FB064C224608210120FFF716F9B1
S31508001BE0FFF7F0F8642004F041FEF4E760020020F5
S31508001BF00801002008B5FFF7E7F900F0B9FC322024
S31508001C0004F034FEF9E7000008B5FFF72FFF0C4C87
S31508001C100C4DFFF7B5FB70B120210948FFF71CFBF7
S31508001C20202229460120FFF7AEFB0D2384F8203039
S31508001C300A2384F821304FF4967004F017FEE8E77B
S31508001C40300100201000002008B5012003F064FFD1
S31508001C50FBE70000024A136801331360704700BFB0
S31508001C601801002010B594B0142200210CA805F024
S31508001C7057FC142200210DEB020005F051FC10223E
S31508001C80002101A805F04CFC02244FF48033012200
S31508001C90CDE91143CDE90A234FF4E0130AA80E92C1
S31508001CA0139302F0CBFA08B172B6FEE70F23CDE91B
S31508001CB005344FF480630790CDE90830214605A81E
S31508001CC002F07EFC08B172B6FEE74FF4004301A8A5
S31508001CD00194039302F04EFD08B172B6FEE714B004
S31508001CE010BD0000102680B54FF0000992B0B44C24
S31508001CF000F078FFFFF7B6FF3246002108A805F086
S31508001D000FFCA369002243F02003A361A3694FF4E3
S31508001D10406103F020030393039BA369A94843F09A
S31508001D200403A361A369012503F004030493049B38
S31508001D30A369022743F00803A361A369DFF888A211
S31508001D4003F008030593059B01F0F2FD9F4BA0489D
S31508001D5008A9CDE90939089601F010FD4FF440634A
S31508001D60984808A9CDE90835CDF828900B9701F0D1
S31508001D7005FD4A4605210A2001F0BCFB0A2001F0B0
S31508001D80E9FB63694A462B436361636905212B4076
S31508001D900B200293029B01F0ADFB0B2001F0DAFB4E
S31508001DA04A4605210F2001F0A5FB0F2001F0D2FBC2
S31508001DB0884B4FF46028CAE900364FF48013504622
S31508001DC0CAF81890AAF81C90CAE90299CAE90483C5
S31508001DD001F066F9044608B172B6FEE742F26003FE
S31508001DE04FF00A09CDE90830CDE90A3008A950466E
S31508001DF0CDE90C59CDE90E551095CDF8449001F072
S31508001E00CAF97548DFF8D4C1754BC0E90244C0E980
S31508001E1000C34FF48043C0E90644C0E904340462B1
S31508001E2001F096FF034608B172B6FEE74FF48272D8
S31508001E306C48DFF8B4A14FF40071C0E900A2202273
S31508001E40C0E90233C0E90433C0E90833C0E90A39F6
S31508001E50C0E9061202F093FD034608B172B6FEE722
S31508001E604FF416526148DFF888E1C0E90233C0E949
S31508001E7000E20C220361C0E90523C36103F050FCAC
S31508001E8008B172B6FEE75B4C5B4BCDE908002360F0
S31508001E904FF480730A90207560602046A36025730E
S31508001EA0C4F81C80276101F07DF808B172B6FEE718
S31508001EB00623204608A9CDE908650A9300F004FF21
S31508001EC008B172B6FEE70723CDE9080708A9204638
S31508001ED00A9300F0F9FE044608B172B6FEE7014619
S31508001EE0CDE906001C2208A805F01AFB4823434D35
S31508001EF04348AC60C5E9000344F620632846C5E9B3
S31508001F000334AC6103F08AF908B172B6FEE7CDE98D
S31508001F10060006A9284603F035FB024608B172B644
S31508001F20FEE760230A90CDE908300C9008A92846F8
S31508001F3003F0CCF908B172B6FEE704222F4808A9C7
S31508001F4003F0C4F9044608B172B6FEE72B4800F060
S31508001F50F1FC4FF4E1332B482B49C0E90244C0E9B0
S31508001F6000130C230461C0E90534C46103F0D8FBEF
S31508001F70044608B172B6FEE71022014608A805F025
S31508001F80CFFA41F61F434FF08042204ECDE9064472
S31508001F90C6E9002342F210733046C6E90334B4603A
S31508001FA0B46103F00FF908B172B6FEE74FF4805337
S31508001FB0304608A9089303F0ECF948B372B6FEE771
S31508001FC000100240000C01406002002000001110C1
S31508001FD0000801400064004010030020005400403F
S31508001FE0801A060064030020003800404C040020D4
S31508001FF0003801403002002000240140040400207B
S31508002000000400409404002000440040BC03002063
S31508002010CDE9060006A9304603F0B4FA044608B12D
S3150800202072B6FEE7304602F0C5FF4FF4AF722B4991
S315080020302B4803F0C7FC02222A492B4800F0FEFE73
S3150800204004212A4803F09CFA41F288322B684FF49F
S315080020507A709A6300F0EAFD03F0C6FC2146244A2A
S31508002060244803F0FDFC244B50221860062323491C
S31508002070009323482346019404F069FA0323502267
S315080020802049009320482346019404F060FA04236B
S3150800209050221E4900931E482346019404F057FA1D
S315080020A0072350221B4900931B482346019404F03A
S315080020B04EFA0223502219490093194823460194DF
S315080020C004F045FA0B23C8221649009316482346FE
S315080020D0019404F03CFA03F0A3FCFEE78005002017
S315080020E04C040020180200203002002004040020BE
S315080020F06C960008491C00082C020020139600085C
S315080021005D1B00081C960008911B00083296000803
S31508002110B91B00083F960008CD1B00084896000822
S31508002120F51B000856960008091C000802680C4BA7
S3150800213010B59A42044601D100F066FD2368B3F152
S31508002140804F0CD10F22074907480B6893FBF2F31F
S31508002150064A136002681A44002302600B6010BD29
S31508002160002C014018010020200100202401002035
S3150800217072B6FEE72DE9F04F002305468A46AD4CB8
S3150800218087B02360EA5C01332C2AFAD12360EA5C23
S3150800219001332C2AFAD12360EA5C01332C2AFAD1BE
S315080021A02360EA5C01332C2AFAD12360EA5C013306
S315080021B02C2AFAD12360EA5C01332C2AFAD123604F
S315080021C0EB5CA3F13102012A02D9362B40F0788163
S315080021D00123CAF81C3000232360EA5C01332C2A49
S315080021E0FAD123600023CDE90333059303AB1946DF
S315080021F001932368EA5C2C2A40F0698103A805F05C
S31508002200E3F8642742F21072DFF82C8290FBF2F0B2
S31508002210D8F80030894E93FBF7F3034403A83360DC
S3150800222005F0D2F890FBF7F090FBF7F307FB1300E5
S31508002230D8F8003093FBF7F207FB123318443B2813
S31508002240C8BF33687E4AC4BF013333603368CABF28
S315080022503C3810601060002B05DA7A491833336071
S315080022600B68013B0B603368182B05DD7549183B75
S3150800227033600B6801330B60336803A8CAF8103063
S315080022801368CAF8143005F09FF8642390FBF3F23C
S3150800229002FB13002368CAF81800013323600023E1
S315080022A0CDE90333059303A92368EA5C2C2A40F099
S315080022B0138103A8FDF74CFF052840F2218103A8E6
S315080022C005F082F84FF0000806B203AB13F8012BAD
S315080022D008F101082E2AF9D103A8FDF739FF03AB47
S315080022E0074603EB080005F06FF88346A7EB0800DE
S315080022F00230FEF787F802460B460020524905F0E1
S3150800230001FE804630468946FEF77CF800224F4B90
S31508002310FEF70CFA064658460F46FEF773F842468D
S315080023204B46FEF703FA02460B4630463946FDF79A
S315080023301DFFFEF7C9FB2368CAF800005A1C226075
S315080023400333AA5C23600023CDE903338AF804200B
S31508002350059303A92368EA5C2C2A40F0C28003A8E7
S3150800236005F032F800270FFA80F803AB13F8012BB3
S3150800237001372E2AFAD103A8FDF7EAFE03AB064673
S31508002380D81905F021F88346F01B0230FEF73AF813
S3150800239002460B4600202C4905F0B4FD0646404689
S315080023A00F46FEF72FF80022284BFEF7BFF98046A6
S315080023B058468946FEF726F832463B46FEF7B6F9F2
S315080023C002460B4640464946FDF7D0FEFEF77CFB23
S315080023D02368CAF808005A1C22600533AA5C2360E1
S315080023E00023CDE903338AF80C20059303A9236853
S315080023F0EA5C2C2A7AD103A804F0E6FF23680D4C80
S31508002400CAF8280001332360EA5C01332C2AFAD182
S3150800241023600023CDE90333059303A92368EA5C07
S315080024202C2A68D103A804F0CFFF00260FFA80F8FB
S315080024300EE000BF7805002030000020740500205B
S315080024407C0500204005002000002440000059407B
S31508002450019A013612F8013B2E2B0192F8D103A8F6
S31508002460FDF776FE03AB0746981904F0ADFF8146E3
S31508002470B81BFDF7C7FF02460B460020214905F0A9
S3150800248041FD06460F464846FDF7BCFF32463B4629
S31508002490FEF74CF9064640460F46FDF7B3FF0B46D6
S315080024A0024639463046FDF761FEFEF70DFB236806
S315080024B0CAF8200001332360EB5C8AF8243002E076
S315080024C00023CAF81C30012007B0BDE8F08F01339D
S315080024D001F8012B23608CE6013301F8012B2360F8
S315080024E0E2E6013301F8012B236033E7013301F8F3
S315080024F0012B23607BE7013301F8012B23608DE76D
S315080025000220E1E7000024402DE9F041069F9046AD
S315080025100E463D46002440F25B1215F8011B47297A
S3150800252021D1297847291ED1697841291BD1002153
S315080025301846642204F0F4FF034602343C44411E64
S3150800254014F8012F2A2A0BD141461846FFF712FE26
S3150800255039463046BDE8F0414FF4AF7203F032BA5F
S3150800256001F8012FECE701349442D6D1ECE70000DC
S315080025702DE9F84F344BDFF8D4A01868FDF742FF71
S3150800258004460D46324BC3E90045324B1868FDF741
S315080025904BFF22462B46FDF79FFF06460F462E4B5E
S315080025A0C3E900672D4B1868FDF73EFF22462B4608
S315080025B0FDF792FFDAE90023FDF7D8FD8046894644
S315080025C0274BCAE90089D3E9002320462946FDF7A7
S315080025D0CBFD244B824618688B46FDF725FF02463D
S315080025E00B4650465946FDF777FF82468B461E4BEB
S315080025F04246C3E900AB30464B463946FDF7B6FDC1
S3150800260052465B46FDF7B2FD06460F46174B0022BB
S31508002610C3E90067124BC3E90045154BFDF7A6FD54
S315080026200022144BFDF758FF0022134BFEF77EF8E5
S31508002630124B0022FDF79AFDFEF7FEF9104B1860C3
S31508002640BDE8F84FFEF7C6BC0000002000070020D2
S31508002650F806002038000020180700200807002088
S315080026601007002034000020F0060020E8060020AD
S31508002670000044400000644000005440000034401C
S31508002680E0060020114B07B59A690F2142F00102B6
S315080026909A619A696FF0010002F001020092009AAD
S315080026A0DA6942F08052DA61DB69002203F080536E
S315080026B00193019B00F01EFF054A536823F0E0636F
S315080026C043F00073536003B05DF804FB001002404A
S315080026D00000014030B5054687B01022002102A847
S315080026E004F01EFF2A681D4B9A4234D103F56C4349
S315080026F09A691B4842F400729A619A6902A902F41F
S3150800270000720092009A9A69164C42F004029A6185
S315080027109B69012203F004030193019B0323CDE97E
S31508002720022301F02BF880204FF400720023C4E93D
S3150800273003024FF4006C20220B492046C4E900131B
S31508002740C4E905C2A360E36100F012FF08B1FFF710
S315080027500FFD2C62656207B030BD00BF0024014042
S3150800276000080140880200200800024010B504460F
S3150800277086B01022002102A804F0D2FE22681A4B65
S315080027809A422ED103F5D633DA69184842F0007218
S31508002790DA61DA6902A902F000720092009A9A696F
S315080027A042F008029A619B6903F008030193019BB2
S315080027B04FF48073029300F0E1FF4FF40072022396
S315080027C0CDE902230323094802A9059300F0D6FFA1
S315080027D0074A536823F4C04343F0E06343F4804355
S315080027E0536006B010BD00BF00640040000C0140F5
S315080027F00000014010B5044686B01022002102A848
S3150800280004F08EFE2268114B9A421CD1104CC0224D
S31508002810A369104843F00803A361A36902A903F05A
S3150800282008030093009B1223CDE902230323059393
S3150800283000F0A4FFE36943F40013E361E36903F4DA
S3150800284000130193019B06B010BD00BF0054004061
S3150800285000100240000C014010B5044686B0102254
S31508002860002102A804F05CFE2268174B9A4228D180
S3150800287003F5EC33DA69154842F48042DA61DA691D
S3150800288002A902F480420092009A9A6942F008026C
S315080028909A619B694FF4204203F008030193019B58
S315080028A00223CDE902230323059300F067FF4FF4C3
S315080028B0804100230548CDE9021302A9049300F0DC
S315080028C05DFF06B010BD00BF00380040000C014097
S315080028D0036807B5B3F1804F15D103F50433DA69F8
S315080028E0052142F00102DA61DB69002203F00103E7
S315080028F001931C20019B00F0FDFD1C2003B05DF830
S3150800290004EB00F027BE03B05DF804FB0268084B31
S3150800291082B09A420AD103F50333DA6942F0020219
S31508002920DA61DB6903F002030193019B02B0704789
S315080029300004004010B5044686B01022002102A803
S3150800294004F0EEFD22680C4B9A4213D103F50333CB
S315080029509A690A4842F004029A619B69C02203F008
S3150800296004030193019B022302A9CDE902230593DF
S3150800297000F004FF06B010BD000400400008014046
S31508002980102270B5064688B00DEB0200002104F04F
S31508002990C7FD3368344A93423CD1344B4FF4007038
S315080029A09A6904A942F480429A619A69002502F458
S315080029B080420092009A9A692D4C42F004029A616C
S315080029C09B6903F004030193019B0223CDE90403E9
S315080029D003232848079300F0D1FE4FF48063254867
S315080029E004A9CDE90435069500F0C8FE224B204619
S315080029F0C4E900358023C4E90555C4E90335A56053
S31508002A00E56100F0B5FD08B1FFF7B2FBF463666255
S31508002A1008B070BD194A9342FAD1144B04A9DA6971
S31508002A20144842F40032DA61DA6902F4003202929A
S31508002A30029A9A6942F004029A619B69042203F099
S31508002A4004030393039B0223CDE90423032307937B
S31508002A5000F094FE002308210648CDE9041304A9D2
S31508002A60069300F08BFED3E70038014000100240C1
S31508002A70CC020020000801405800024000440040F3
S31508002A801E4B70B59A6988B042F400629A619B69D8
S31508002A9001A903F400630293064603A8184D029B96
S31508002AA001F04AFE01F038FE164B2B6040F2E73380
S31508002AB0EB60154BB0FBF3F000230138686028463D
S31508002AC02B61AB60AB6102F07DFB044680B92846FA
S31508002AD002F070FA044658B9192000F03BFD0F2E93
S31508002AE009D822463146192000F004FD074B1E601E
S31508002AF0204608B070BD0124FAE700BF0010024066
S31508002B0020070020002C014040420F00440000200E
S31508002B10FEE7FEE7FEE7FEE7FEE77047102000F057
S31508002B200DBF0000014800F095BD00BF88020020D7
S31508002B30014800F08FBD00BFCC020020014802F01A
S31508002B4067BA00BF20070020014802F061BA00BF3B
S31508002B50BC0300200B4A0346116810B509B90A4997
S31508002B601160106809490A4C0344091B8B4206D9AF
S31508002B7004F034FD0C2303604FF0FF3010BD1360E2
S31508002B80FCE700BF68070020D0290020005000207D
S31508002B900004000070470000FFF7FCFF0B480C49D3
S31508002BA00C4A002302E0D458C4500433C4188C429B
S31508002BB0F9D3094A094C002301E013600432A24202
S31508002BC0FBD304F011FDFFF78DF8704700000020D5
S31508002BD0B0000020A8980008B0000020D0290020E6
S31508002BE0FEE70000074A08B51368032043F0100300
S31508002BF0136000F06DFC0F20FFF742FFFFF742FD60
S31508002C00002008BD00200240034A044B11681B78C7
S31508002C100B441360704700BF6C070020400000207B
S31508002C20014B1868704700BF6C07002038B504468A
S31508002C30FFF7F6FF0546631C1EBF044B1B78E41816
S31508002C40FFF7EEFF431BA342FAD338BD400000202E
S31508002C507047436A10B59A6A12F0500F1BD19A6AE8
S31508002C6042F400729A621A68926802F46022B2F517
S31508002C70602F0CD11A7B52B99A6A22F480729A6232
S31508002C809A6AD2045EBF9A6A42F001029A621846AC
S31508002C90FFF7DEFF10BD1B6ABDE810401B6B184727
S31508002CA0704708B5406AFFF7FBFF08BD7047406AE2
S31508002CB008B5836A43F040038362C36A43F004039A
S31508002CC0C362FFF7F3FF08BD002373B5019390F8BD
S31508002CD024300446012B6CD0012380F824304D683B
S31508002CE00268062D086805EB850322D81F26556B52
S31508002CF0053B9E4025EA060500FA03F32B4353637A
S31508002D0009288B6800EB40054FF0070129D9D668DA
S31508002D101E3DA94026EA0101AB400B43D360A0F152
S31508002D201003012B25D90020002384F8243002B093
S31508002D3070BD0C2D4FF01F0509D8166B233B9D401F
S31508002D4026EA050500FA03F32B431363D8E7D66A88
S31508002D50413B9D4026EA050500FA03F32B43D3625F
S31508002D60CEE71069A94020EA0101AB400B43136185
S31508002D70D9E7114B9A4216D193681B02D3D49368AC
S31508002D80102843F400039360CDD10C4B0C4A1B6802
S31508002D90B3FBF2F30A2253430193019B002BC2D0E3
S31508002DA0019B013BF8E7A36A012043F02003A362D5
S31508002DB0BAE70220BBE700BF002401403C00002020
S31508002DC040420F00002337B50193036804469A680A
S31508002DD0D20702D5002003B030BD9A6842F001023E
S31508002DE09A60144B144A1B68B3FBF2F30193019BD8
S31508002DF0E3B9FFF715FF054623689B68DB07E9D4A7
S31508002E00FFF70EFF401B0228F6D923689B6813F0CC
S31508002E100103F1D1A26A012042F01002A262E26A1D
S31508002E2084F8243042F00102E262D4E7019B013BB8
S31508002E30DCE700BF3C00002040420F002DE9F041CE
S31508002E40404B9046026804469A420F4602D03E49D5
S31508002E508A4203D15B6813F4702F6ED194F824303C
S31508002E60012B6CD00123204684F82430FFF7AAFFF3
S31508002E70064600285DD1A56A2168334B25F470659E
S31508002E8025F0010545F480759942A56204D12D4ABD
S31508002E90536813F4702F3ED1A36A23F48013A362F8
S31508002EA04B685A0505D5A36A23F4405343F4805367
S31508002EB0A362A36A206A13F4805318BFE36A3A46EA
S31508002EC018BF23F00603E362002384F824301F4B5F
S31508002ED04C3183621E4BC3621E4B03636FF00203C1
S31508002EE041F84C3C51F8443C43F4807341F8443C67
S31508002EF0434600F06FFB23689A6802F46022B2F535
S31508002F00602F9A680CBF42F4A00242F480129A60BD
S31508002F103046BDE8F081A36A43F48013A362536880
S31508002F205B0541BFA06A20F4405040F48050A0627F
S31508002F30BFE7002384F82430EAE70126E8E70226FB
S31508002F40E6E700BF0024014000280140532C000892
S31508002F50A32C0008AF2C000838B5036804469A6805
S31508002F60D10701D4002038BD9A6822F001029A6080
S31508002F70FFF756FE054623689B68DB07F2D5FFF781
S31508002F804FFE401B0228F6D923689B68DA07F2D55C
S31508002F90A36A012043F01003A362E36A43F0010326
S31508002FA0E362E0E7F8B5044600286DD0836A23B9E2
S31508002FB0C36280F82430FFF78DFB2046FFF7CCFF6D
S31508002FC0A36A13F0100361D100285FD1A26A616871
S31508002FD022F4885222F0020242F00202E569A6684B
S31508002FE0A262227B2943B6F5807F41EA420136D0A8
S31508002FF0771E7D427D412D02277D012F06D182BB9A
S31508003000A269013A45EA423242F400652268B6F5F9
S31508003010807F576827F4694745EA0705556097682A
S315080030201D4D05EA070545EA0105956001D0012E03
S3150800303002D12369013B1B05D56A25F470052B438C
S31508003040D3629268154B1340994213D10023E36269
S31508003050A36A23F0030343F00103A362F8BD3546D0
S31508003060CAE7A26A42F02002A262E26A42F00102BC
S31508003070E262CBE7A36A23F0120343F01003A362CC
S31508003080E36A43F00103E3620120E7E7A36A43F03A
S315080030901003A362F8E700BFFDF7E1FFFE0E1FFF6E
S315080030A038B5044600286ED090F820300BB9FFF7E3
S315080030B05DFB2268136843F001031360FFF7B0FD58
S315080030C0054623685A68D10751D51A6822F00202C4
S315080030D01A60FFF7A5FD054623685A68920754D477
S315080030E0227E0020012A1A680CBF42F0800222F0D4
S315080030F080021A60627E012A1A680CBF42F04002FA
S3150800310022F040021A60A27E012A1A680CBF42F019
S31508003110200222F020021A60E27E012A1A680CBFF9
S3150800312022F0100242F010021A60227F012A1A6861
S315080031300CBF42F0080222F008021A60627F012AD8
S315080031401A680CBF42F0040222F004021A60D4E99D
S3150800315002210A4321690A4361690A436168013900
S315080031600A43DA610123606284F8203038BDFFF72C
S3150800317057FD401B0A28A4D9636A43F400336362E7
S31508003180052384F820300120F0E7FFF749FD401BAE
S315080031900A28A1D9F0E770B590F820200368013A0B
S315080031A0012A62D80120D3F8002242F00102C3F8AE
S315080031B000224A69D3F81C5202F01F04A04025EAEF
S315080031C00005C3F81C52CD69C44395BBD3F80C520D
S315080031D0CE682540C3F80C528D8803EBC20245EA37
S315080031E00645C2F840528E680D8845EA0645C2F87B
S315080031F044528A697ABBD3F804222240C3F80422CF
S315080032000A6962BBD3F814221440C3F814420A6A46
S31508003210012A04BFD3F81C2202434FF0000008BF5E
S31508003220C3F81C22D3F8002222F00102C3F80022B8
S3150800323070BD012DDDD1D3F80C520E680543C3F8D5
S315080032400C528D8803EBC20245EA0645C2F8405285
S315080032508E688D89C9E7D3F804220243CEE7D3F8EE
S3150800326014220243C3F81422D1E7436A43F48023A5
S3150800327043620120DCE770B590F820300446012B44
S31508003280DDB220D10223026880F82030136823F0CB
S3150800329001031360FFF7C4FC064623685B6813F056
S315080032A0010302D11D4663620BE0FFF7B9FC801BE0
S315080032B00A28F2D9636A43F400336362052384F863
S315080032C02030284670BD436A012543F40023436233
S315080032D0F7E7F0B5054690F820002E680138012872
S315080032E0B4683CD814F0E05F4FF0010032D0C4F364
S315080032F00164A0401860D1E9020704F1180310BB65
S3150800330008681B0147EA4057F750200106EB0413EB
S31508003310064400200D69C3F88451097D012902BFBE
S31508003320D3F8841141F48071C3F884115168C6F842
S315080033308C111268C6F88821D3F8802142F0010260
S31508003340C3F88021F0BD4D68384340EAC5001B012B
S31508003350F050DAE76B6A43F400136B62F2E76B6AC4
S31508003360012043F480236B62ECE790F82030013BA0
S31508003370012B0CD8036898689A689B681201C0F3F9
S31508003380806048BF0130DB0002D50130704700205D
S31508003390704790F82030013B012B09D803689B68D9
S315080033A003EA8163B3EB816F14BF012000207047E5
S315080033B000207047F0B50446084694F820100139F5
S315080033C0012971D8266840B9F168890707D1636A67
S315080033D043F40013012063625AE03169F5E706EB0E
S315080033E00015D5F8B071010107F004079760002FA2
S315080033F04FD1D5F8B0717F0D1760D5F8B0710E446E
S3150800340007F00207D760D5F8B4713F074EBF082703
S31508003410D5F8B47107F00F071761D5F8B471D5F868
S31508003420B451C7F307272D0C97615561D6F8B82113
S315080034301A7022680A44D2F8B821120A5A70226809
S315080034400A44D2F8B821120C9A7022680A44D2F8B3
S31508003450B821120EDA7022680A44D2F8BC211A7111
S3150800346022680A44D2F8BC21120A5A7122680A4410
S31508003470D2F8BC21120C9A7122680A44D2F8BC21EF
S31508003480120EDA71236848B9DA6842F02002DA6067
S31508003490F0BDD5F8B071FF085760AEE71A6900208D
S315080034A042F020021A61F3E7636A43F4802391E746
S315080034B090F82030013B012B07D8036819B9D86862
S315080034C000F0030070471869FAE70020704700000B
S315080034D007490302CA6803F4E06322F4E0621204AF
S315080034E0120C134343F0BF6343F40033CB607047B9
S315080034F000ED00E0154B30B5DC68C4F30224C4F1D6
S315080035000703251D042B28BF0423062D4FF0FF357E
S3150800351094BF0024033C05FA03F321EA0303A540FC
S3150800352022EA0502A340002843EA0203ACBF00F1E1
S315080035306040074A4FEA0313DBB2ABBF00F56140B0
S3150800354000F00F0080F80033135430BD00ED00E0A2
S3150800355014ED00E0002807DB01234109034A00F0C7
S315080035601F00834042F82130704700BF00E100E0A9
S31508003570034610B540B314210068144A0244B2FB4E
S31508003580F1F292001A64124ADA63022283F82120C1
S31508003590D3E901242243DC68016822431C6921F42B
S315080035A07F5122435C6921F0300122439C69224302
S315080035B0DC6922430A43026000200122986383F8EB
S315080035C0200083F8212010BD0120FCE7F8FFFDBF8D
S315080035D000000240F0B5054690F82000012836D0D4
S315080035E0012085F8200095F8210000240128C6B29C
S315080035F04FF0020028D185F82100AC632C682068BA
S3150800360020F001002060D5E90F7006FA00F0786016
S3150800361063606B68102BEB6A0BBFA260A160E16068
S31508003620E2604BB1236843F00E0300202360236851
S3150800363043F001032360F0BD236823F004032360ED
S31508003640236843F00A03F0E785F82040F3E70220F1
S31508003650F1E7000070B40425C66B026C3468036891
S3150800366095402542196832D04D0730D51A68960616
S315080036705EBF1A6822F004021A603E4A934219D0C5
S315080036801432934218D01432934217D0143293420C
S3150800369017D01432934217D0143293420CBF4FF40A
S315080036A080034FF08063344A5360C36A002B5ED0B0
S315080036B070BC18470423F6E74023F4E74FF4806309
S315080036C0F1E74FF48043EEE74FF48023EBE702255A
S315080036D09540254235D08D0733D51A68940606D409
S315080036E01A6822F00A021A60012280F82120214A6B
S315080036F0934219D01432934218D01432934217D0F9
S315080037001432934217D01432934217D0143293428C
S315080037100CBF4FF400134FF00073174A5360002391
S3150800372080F82030836AC1E70223F6E72023F4E70E
S315080037304FF40073F1E74FF40053EEE74FF400330C
S31508003740EBE708259540254211D009070FD51968DA
S3150800375021F00E011960012303FA02F272608363F5
S3150800376080F82130002380F82030036B9EE770BC78
S31508003770704700BF08000240000002402DE9F74FDD
S3150800378000221646644F654BDFF894C1DFF894E1D2
S315080037900D6835FA06F402D103B0BDE8F08F4FF094
S315080037A0010808FA06F805EA080438EA05057AD190
S315080037B04D68032D07D8013D022D00F28780DFE80A
S315080037C005F0959AA000122D00F098806DD8112D5D
S315080037D000F08E80FF2C98BF82464FF00F0988BFF5
S315080037E000F1040A4FEA8605DAF8008088BF203D12
S315080037F009FA05FB28EA0B0802FA05F548EA050561
S31508003800CAF80050D1F804A01AF0805F4BD0BD6901
S3150800381026F0030845F00105BD61BD6908F1804839
S3150800382005F00105019508F5803806F0030B019DA2
S315080038304FEA8B0BD8F8085009FA0BF925EA09095B
S31508003840394DA84261D005F58065A8425FD005F5D7
S315080038508065A8425DD005F58065A8420CBF0325A2
S31508003860042505FA0BF545EA0905C8F808509D68C8
S315080038701AF4801F14BF2543A5439D60DD681AF41A
S31508003880001F14BF2543A543DD605D681AF4003F99
S3150800389014BF2543A5435D601D681AF4803F14BF15
S315080038A02543A5431D60013672E7DFF880904D4534
S315080038B00CD017D8A9F580194D4507D009F57029F8
S315080038C04D4503D0A9F580194D4583D18A68D2B1F3
S315080038D0012A08BFC0F810804FF0080218BFC0F8C8
S315080038E0148077E76545F1D07545EEE7CA6871E754
S315080038F0CA6804326EE7CA6808326BE7CA680C32CF
S3150800390068E7002266E7042264E70025A9E701259F
S31508003910A7E70225A5E700BF001002400004014002
S31508003920000031100000321000080140000022108B
S315080039300AB1016170470904FBE70000044A08B5AB
S315080039405169014202D05061FEF784F908BD00BFF3
S3150800395000040140016800224B6913F4806310D00B
S315080039606FF480634B612023026380F83D3080F852
S315080039703E20036C80F83C2043F0040303640120D6
S315080039807047184670472DE9F84606460F46914691
S315080039901D464FEA114A3368BAF1010F0CBF5C693C
S315080039A09C6927EA0404A4B2B4FA84F46409A1451C
S315080039B001D0002025E06A1CEED0FFF731F9089BFC
S315080039C0C01AA84201D8002DE5D13368BAF1010F13
S315080039D00CBF5B699B6927EA03039BB2B3FA83F3BF
S315080039E05B099945D7D1002320220120336386F845
S315080039F03D2086F83E30326C86F83C3042F0200294
S31508003A003264BDE8F8862DE9F04104460F461646AD
S31508003A1098462568686927EA000080B2B8B16B69DC
S31508003A205A0516D52B68202243F400732B606FF4D1
S31508003A3080636B610023236384F83D2084F83E305D
S31508003A40226C42F004020120226484F83C30BDE86E
S31508003A50F081731CDED0FFF7E3F8A0EB0800B04254
S31508003A6001D8002ED5D123685A6927EA020292B2F4
S31508003A70002ACED000232022236384F83D2084F830
S31508003A803E30226C42F02002DDE770B504460D4652
S31508003A90164623685B691B0601D5002070BD2046C3
S31508003AA0FFF758FFC8B96A1CF3D0FFF7B9F8801BAF
S31508003AB0A84201D8002DECD123685B6913F0800376
S31508003AC0E7D12022236384F83D2084F83E30226C17
S31508003AD084F83C3042F0200222640120DEE7000030
S31508003AE02DE9F043154602689946136885B043F4F4
S31508003AF080731360DDE90C780E463B4600224FF0D2
S31508003B000111CDF800800446FFF73DFF236838B160
S31508003B101B68DB0502D54FF40073236403200AE013
S31508003B2006F0FE061E613A46434620461749FFF749
S31508003B306AFF18B1012005B0BDE8F0832368039039
S31508003B405A69394603929B69424603932046039B6A
S31508003B50FFF79BFF40B1236C042B01BF2268136853
S31508003B6043F400731360E5E7B9F1010F236802D146
S31508003B70EDB21D61DFE72A0A1A6139464246204638
S31508003B80FFF783FF0028E6D12368F1E7020001006A
S31508003B902DE9FF479A46DDE90C78036815461A6849
S31508003BA00E4642F480621A601A684FF0011142F418
S31508003BB080721A603B460022CDF800800446FFF763
S31508003BC0E2FE236848B11B68DB0502D54FF4007393
S31508003BD02364032004B0BDE8F0875FFA86F906F08F
S31508003BE0FE061E613A46434620462949FFF70BFF63
S31508003BF008B10120EEE7236803905A693946039213
S31508003C009B69424603932046039BFFF73EFF40B15C
S31508003C10236C042B01BF2268136843F400731360F6
S31508003C20E7E7BAF1010F23681AD1EDB242463946E1
S31508003C3020461D61FFF729FF02460028E8D12168C2
S31508003C4020460B6843F480730B603B464FF0011126
S31508003C50CDF80080FFF797FE226860B11368B3E7D6
S31508003C602A0A1A61394642462046FFF70EFF0028FF
S31508003C70CED12368D9E749F00103136120464346AC
S31508003C803A460349FFF7BFFE003818BF0120A1E7EF
S31508003C900200010070B504460D46164623685B69A6
S31508003CA05B0701D5002070BD2046FFF753FEC8B953
S31508003CB06A1CF3D0FEF7B4FF801BA84201D8002D7A
S31508003CC0ECD123685B6913F00403E7D12022236350
S31508003CD084F83D2084F83E30226C84F83C3042F06B
S31508003CE0200222640120DEE770B504460D4616461A
S31508003CF021684B6913F0400301D0002010E04A699F
S31508003D00D2060ED56FF010024A612022236384F88A
S31508003D103D2084F83E30226C0120226484F83C3031
S31508003D2070BDFEF77DFF801BA84201D8002DDFD1AC
S31508003D3023685B6913F04003DAD12022236384F8F1
S31508003D403D2084F83E30226C42F02002E4E7000071
S31508003D5070B5044608B9012070BD90F83D3003F0EF
S31508003D60FF021BB980F83C20FEF744FD242384F8A3
S31508003D703D3023681A6822F001021A601A6842F474
S31508003D8000421A601A6822F400421A6000F0B4FC75
S31508003D903F4B65689D4294BF3E4B3F4B98428CBF54
S31508003DA000230123002BD6D1394E3C4BB542B0FB3C
S31508003DB0F3F388BF4FF496762268516821F03F01E5
S31508003DC041EA030182BF73434FF47A76B3FBF6F3F5
S31508003DD05160116A013321F03F010B431362D16927
S31508003DE0431E2B4821F44F41854221F0FF0132D86A
S31508003DF06D00B3FBF5F340F6FC700133034242D085
S31508003E00C3F30B031943D1611168D4E9073021F0D4
S31508003E10C00103430B4313609168D4E9030321F4FB
S31508003E200341034321F0FF010B439360D168D4E9B2
S31508003E30053021F0FF0103430B43D36013680020CC
S31508003E4043F0010313602023206484F83D30206387
S31508003E5084F83E0080E7A06850B905EB4505B3FB3A
S31508003E60F5F30133C3F30B037BB143F40043C9E70E
S31508003E7019206843B3FBF0F30133C3F30B0323B1F3
S31508003E8043F44043BEE70423BCE70123BAE700BF77
S31508003E90A08601007F841E00FF083D0040420F00F7
S31508003EA02DE9F743044699460F4690460C9EFEF7C1
S31508003EB0B7FE94F83D300546202B03D0022003B008
S31508003EC0BDE8F08300901923012220463A49FFF7FE
S31508003ED05AFD0028F2D194F83C30012BEED001238C
S31508003EE0206884F83C3003684246D90758BF0368FF
S31508003EF039465CBF43F001030360036823F400639B
S31508003F000360212384F83D30402384F83E300023A3
S31508003F1023640A9B20466362BDF82C30CDE9006510
S31508003F206385638D2385254BE3624B46FFF7D8FDF2
S31508003F3000282AD00120C2E7FFF7A7FD40B1236C6D
S31508003F40042B01BF2268136843F400731360F1E77A
S31508003F50636A27681A4612F8011B39616262628D24
S31508003F60218D013A92B262857A69481E80B252075B
S31508003F7020850AD548B15A7802333A616362638D5F
S31508003F800239013B9BB221856385238D2A4631463A
S31508003F902046002BD0D1FFF77DFE0028CFD122681E
S31508003FA0136843F400731360202384F83C0084F8F4
S31508003FB03D3084F83E0082E7020010000000FFFF53
S31508003FC02DE9F04399460023044689B003930D462C
S31508003FD09046129FFEF724FE94F83D300646202BA5
S31508003FE004D00225284609B0BDE8F08300901923BD
S31508003FF0012220468D49FFF7C6FC0028F1D194F826
S315080040003C30012BEDD00123206884F83C3003684E
S315080040102946DB0758BF036842465CBF43F00103E5
S315080040200360036823F400630360222384F83D30A9
S31508004030402384F83E3000232364109B20466362A5
S31508004040BDF84430CDE900766385638D2385784BCA
S31508004050E3624B46FFF79CFD054608B10125C1E71B
S31508004060228D2368C2B904905A6904929A69049207
S31508004070049A1A6842F400721A60DFF8B881DFF809
S31508004080B891238D002B37D1202284F83C3084F850
S315080040903D2084F83E30A5E7012A11D11A6822F49A
S315080040A080621A6072B6236805905A6905929A6901
S315080040B00592059A1A6842F400721A6062B6DCE73D
S315080040C0022A1A680ED142F400621A6072B6236890
S315080040D006905A6906929A690692069A1A6822F40E
S315080040E08062EAE742F480621A6007905A6907928A
S315080040F09B690793079BC0E7032B78D8012B15D13B
S31508004100324639462046FFF7EFFD0028A6D1236838
S315080041101A69636A1A70636A01336362238D013B05
S315080041202385638D013B9BB26385AAE7022B4FF07B
S3150800413000023B4641462046009618D1FFF723FC6D
S3150800414000288BD172B623681A6842F400721A6086
S315080041501A69636A1A70636A01336362238D013BC5
S315080041602385638D013B9BB2638562B6CFE7FFF774
S315080041700AFC00287FF472AF2268136823F4806370
S31508004180136072B646F2A81123681A69636A1A7030
S31508004190626A531C6362238D013B2385638D013B51
S315080041A09BB26385D9F80030B3FBF1F323214B4367
S315080041B00393039B013B0393039B6BB92022236361
S315080041C084F83D2084F83E30226C42F020022264B6
S315080041D062B684F83C3041E7236859694807E8D550
S315080041E0196841F4007119601B695370B3E73246C8
S315080041F039462046FFF778FD00287FF42FAF23685D
S315080042001A69636A1A70626A531C6362238D013BDA
S315080042102385638D013B9BB26385236859694907EA
S315080042207FF52FAF1B69537075E700BF02001000BA
S315080042300000FFFF040001003C0000202DE9F341C7
S31508004240054638B30368DB0710D42B689F075ED48E
S315080042502B68190700F195802B685A0700F1C18071
S31508004260E869002840F02C81002029E0904C63681A
S3150800427003F00C03042B07D0636803F00C03082B28
S315080042800AD16368DE0307D523689C03DDD56B680E
S31508004290002BDAD1012013E06B68B3F5803F12D109
S315080042A0236843F480332360FEF7BAFC0646236886
S315080042B09803CAD4FEF7B4FC801B6428F7D90320F8
S315080042C002B0BDE8F0819BB9236823F480332360EC
S315080042D0236823F480232360FEF7A2FC064623689E
S315080042E09903B2D5FEF79CFC801B6428F7D9E6E74C
S315080042F0B3F5A02F236803D143F480232360CFE7C7
S3150800430023F480332360236823F48023CBE7684CA7
S31508004310636813F00C0F07D0636803F00C03082BCF
S3150800432010D16368DA030DD423689B0702D52B697D
S31508004330012BAFD123686A6923F0F80343EAC20365
S31508004340236085E72A695B4B6AB101221A60FEF78A
S3150800435067FC064623689F07ECD4FEF761FC801BC2
S315080043600228F7D9ABE71A60FEF75AFC0646236817
S3150800437098077FF56DAFFEF753FC801B0228F6D928
S315080043809DE7AA694A4E4B4BE2B10122C3F8802445
S31508004390FEF746FC0446736A9B070DD54FF4FA529E
S315080043A0454B1B68B3FBF2F3019300BF019B5A1EF2
S315080043B00192002BF9D14FE7FEF732FC001B0228C9
S315080043C0E9D97CE7C3F88024FEF72AFC0446736A19
S315080043D09F077FF541AFFEF723FC001B0228F6D99D
S315080043E06DE7334CE369D80024D40127E36943F029
S315080043F08053E361E36903F080530093009B2F4EDB
S315080044003368D90518D5EB68012B26D1236A43F002
S3150800441001032362FEF704FC41F288380646236A44
S315080044209B073FD5002F3FF41BAFE36923F080536A
S31508004430E36115E70027E2E7336843F480733360E6
S31508004440FEF7EEFB80463368DA05DCD4FEF7E8FBB8
S31508004450A0EB08006428F6D931E7ABB9236A41F224
S31508004460883823F001032362236A23F004032362B6
S31508004470FEF7D6FB0646236A9807D3D5FEF7D0FB88
S31508004480801B4045F7D91AE7052B236A03D143F069
S3150800449004032362BAE723F001032362236A23F0A5
S315080044A00403B6E7FEF7BCFB801B4045B7D906E711
S315080044B000100240000042423C000020007000400C
S315080044C02A4C636803F00C03082B3ED00022284BC5
S315080044D002281A662CD1FEF7A3FB06462368990123
S315080044E020D42B6AB3F5803F05D16268A96822F407
S315080044F000320A436260696A62680B4322F47412E6
S315080045001343012263601A4B1A66FEF789FB0546B8
S3150800451023689A013FF5A8AEFEF782FB401B0228E6
S31508004520F6D9CCE6FEF77CFB801B0228D6D9C6E670
S31508004530FEF776FB054623689B017FF595AEFEF7E9
S315080045406FFB401B0228F6D9B9E601283FF4B8AE3E
S3150800455063682A6A03F4803191427FF49BAE6A6AE3
S3150800456003F4701393423FF47FAE93E600100240C3
S31508004570000042420D4A536803F00C01082912D183
S315080045800B48C3F38341DB03405C09D55368094AEA
S31508004590C3F340435043084AD35CB0FBF3F070477B
S315080045A0064B584370470348704700BF0010024047
S315080045B0A896000800127A00B896000800093D007F
S315080045C02DE9F0410D46044610B90120BDE8F081F9
S315080045D0444A136803F007038B4228D321688E07E1
S315080045E030D4CA0743D43F4A136803F00703AB42E3
S315080045F065D822683C4D12F0040F6CD1130706D516
S315080046006B68226923F4605343EAC2036B60FFF7C1
S31508004610B1FF6B68354AC3F30313D35CD840344BF8
S315080046201860344B1868FEF72BFA0020CEE713689B
S3150800463023F007030B431360136803F007038B4249
S31508004640C3D1CBE7284B11F0040F1EBF5A6842F4BA
S31508004650E0625A60080742BF5A6842F460525A60DC
S315080046605A68A06822F0F00202435A60B9E7626805
S315080046701D4E012A33681AD113F4003FA5D073687A
S3150800468041F2883823F0030313437360FEF7C8FA30
S3150800469007467368626803F00C03B3EB820FA2D077
S315080046A0FEF7BEFAC01B4045F3D903208EE7022A5F
S315080046B002D113F0007FE1E713F0020FDEE713687B
S315080046C023F007032B431360136803F00703AB4279
S315080046D07FF47BAF8DE76B68E16823F4E0630B43F7
S315080046E06B608BE70020024000100240909600089D
S315080046F03C00002044000020044B054A5B68C3F3D5
S315080047000223D35C034A1068D84070470010024061
S31508004710A09600083C000020044B054A5B68C3F3DA
S31508004720C223D35C034A1068D84070470010024081
S31508004730A09600083C0000200F2303600B4B5A6824
S3150800474002F0030242605A6802F0F00282605A6878
S3150800475002F4E062C2605B68DB0803F4E0630361AD
S31508004760034B1B6803F007030B60704700100240F9
S315080047700020024003682DE9F341D907054621D5F3
S31508004780364CE369DA0033D40126E36943F08053F3
S31508004790E361E36903F080530193019B304F3B6863
S315080047A0DB0527D5236A6A6813F4407336D1236A72
S315080047B06A6823F44073134323621EB1E36923F046
S315080047C08053E3612868830706D52449AB684A689D
S315080047D022F440421A434A6010F010001BD01F4AC8
S315080047E0E9685368002023F480030B43536012E002
S315080047F00026D3E73B6843F480733B60FEF710FA64
S3150800480080463B68D805CDD4FEF70AFAA0EB080027
S315080048106428F6D9032002B0BDE8F08102F440729C
S315080048209A42C4D001200F4A236AC2F840040020E5
S3150800483023F44071C2F840042162D907B7D5FEF7C0
S31508004840EFF941F288380746236A9A07AFD4FEF78C
S31508004850E7F9C01B4045F7D9DCE700BF0010024066
S3150800486000700040000042422DE9F3411C461646FE
S315080048700F460546FEF7D4F93444241AFEF7D0F954
S315080048808046234B1B68C3F3CB3363432A680193E3
S31508004890936837EA030301D000202EE0731CF7D093
S315080048A0FEF7BEF9A0EB0800A04229D32B685A6888
S315080048B022F0E0025A606A68B2F5827F0AD1AA68D5
S315080048C0B2F5004F02D0B2F5806F03D11A6822F014
S315080048D040021A60AA6AB2F5005F07D11A6822F484
S315080048E000521A601A6842F400521A60012385F8C9
S315080048F051300023032085F8503002B0BDE8F0811E
S31508004900019B002B019B08BF0024013BBEE700BFAB
S315080049103C00002038B5134642680446B2F5827F4B
S3150800492016D18268B2F5004F02D0B2F5806F0FD16A
S315080049302568B2F5806F286820F04000286007D106
S315080049400A4601212046FFF78FFF20B9002038BD0F
S315080049500A468021F6E7636D032043F0200363656A
S31508004960F5E710B513460A4680210446FFF77CFF93
S3150800497020B10320636D43F02003636510BD10B5B5
S315080049800446002851D0436A002B4AD14268B2F542
S31508004990827F00D0C3610023A36294F8513003F0EC
S315080049A0FF0223B9204684F85020FDF755FF02235D
S315080049B0226884F851301368A06823F04003136016
S315080049C0636800F4044003F482730343E068A16952
S315080049D000F400600343206900F0020003436069A5
S315080049E000F00100034301F400700343E069090C79
S315080049F000F038000343206A01F0040100F080004B
S31508004A000343A06A00F40050034313605160D3695E
S31508004A10002023F40063D3610123606584F85130D4
S31508004A2010BD0023C0E90433B5E70120F8E72DE9F6
S31508004A30F3471F4690F850300446012B0D46904622
S31508004A4000F0A680012380F85030FEF7E9F894F8C4
S31508004A5051308246012B5FFA83F940F09680002D8B
S31508004A6067D0B8F1000F64D0032384F851300023CF
S31508004A706365C4E91033A4F83680A363A387E38784
S31508004A80A3682668B3F5004F2563A4F8348007D1D8
S31508004A90336823F040033360336843F4804333605C
S31508004AA0336862685B065EBF336843F04003336071
S31508004AB0E368B3F5006F43D112B1B8F1010F07D11E
S31508004AC035F8023BF3602563E38E013B9BB2E38630
S31508004AD0E38E9BB2B3B9524639462046FFF741FFEB
S31508004AE000284FD1A36833B901932368DA68019285
S31508004AF09B680193019B636DDBB90122994684F893
S31508004B00512016E022689368980705D5236B33F879
S31508004B10021BD1602363D7E7FEF782F8A0EB0A00F1
S31508004B20B842D5D3791CD3D001234FF0030984F8B2
S31508004B305130002384F85030484602B0BDE8F0876B
S31508004B4012B1B8F1010F08D12B783373236B0133F7
S31508004B502363E38E013B9BB2E386E38E9BB2002B75
S31508004B60B9D023689A68920703D5226B12781A730C
S31508004B70ECE7FEF755F8A0EB0A00B842EDD37B1C2C
S31508004B80EBD0D1E720236365ACE74FF00209D0E705
S31508004B904FF00209D0E72DE9F7431E4690F850304A
S31508004BA00446012B0D469146DDF8288000F0E68084
S31508004BB0012380F85030FEF733F894F85130074651
S31508004BC0012B6268D9B20AD0B2F5827F40F0D48050
S31508004BD0A368002B40F0D080042940F0CD800DB9A1
S31508004BE001206FE0B9F1000FFAD0002EF8D094F842
S31508004BF05130C4F83890042B1CBF052384F8513073
S31508004C0000236365C4E910332368E687E6861968D6
S31508004C10A687490658BF1968256358BF41F0400161
S31508004C20A68658BF1960E168B1F5006F50D10AB180
S31508004C30012E07D135F8022BDA60E38E2563013B96
S31508004C409BB2E3860125E38E9BB263B9E38F9BB2E1
S31508004C504BB93A4641462046FFF783FE00287AD0EC
S31508004C6020236365BCE721688B689A070DD5E38E18
S31508004C709BB253B14DB10025236B33F8022BCA60A2
S31508004C802363E38E013B9BB2E3868A6812F0010236
S31508004C900CD0E38F9BB24BB11546C968A36B23F8BA
S31508004CA0021BA363E38F013B9BB2E387FDF7B8FFC3
S31508004CB0C01B4045C7D3B8F1FF3FC4D0012303202A
S31508004CC084F85130002384F8503003B0BDE8F083EF
S31508004CD00AB1012E08D12A781A73236B013323638C
S31508004CE0E38E013B9BB2E3860125E38E9BB21BB99B
S31508004CF0E38F9BB2002BACD0226893689B070ED536
S31508004D00E38E9BB25BB155B10025236B1B781373F9
S31508004D10236B01332363E38E013B9BB2E386226850
S31508004D20916811F001010DD0E38F9BB253B10D4686
S31508004D30D268A36B1A70A36B0133A363E38F013B9D
S31508004D409BB2E387FDF76CFFC01B4045CDD3B8F196
S31508004D50FF3FCAD0B2E7A36833B923680190DA687F
S31508004D6001929B680193019B636D002B7FF438AF1A
S31508004D70012384F85130A5E70220A3E70220A4E71F
S31508004D802DE9F3471E4690F851300446012B8A4612
S31508004D909046DDB240F095804368B3F5827F0ED128
S31508004DA0836863B9042380F85130134600960A468F
S31508004DB0FFF7F1FE0546284602B0BDE8F08794F8ED
S31508004DC05030012B7FD0012384F85030FDF728FF9F
S31508004DD08146BAF1000F64D0B8F1000F61D0002700
S31508004DE00423A26884F85130B2F5004F6765C4E918
S31508004DF01077A4F83E802368C4F838A0A4F83C804D
S31508004E002763A786E78607D11A6822F040021A6048
S31508004E101A6822F480421A601A6857065EBF1A6832
S31508004E2042F040021A60E368F3B1E38F9BB2FBB12C
S31508004E3023689A68D20738D5DA68A36B23F8022B59
S31508004E40A363E38F013B9BB2E387EEE723689A6887
S31508004E50D0071AD51B7BA26B1370A36B0133A36310
S31508004E60E38F013B9BB2E387E38F9BB2002BEDD127
S31508004E704A4631462046FFF74DFDF8B9636D83B9BA
S31508004E8001221D4684F851200BE0FDF7C9FEA0EB70
S31508004E900900B042E8D3711CE6D00123032584F843
S31508004EA05130002384F8503085E7FDF7B9FEA0EBB2
S31508004EB00900B042B9D3731CB7D0EEE72023636567
S31508004EC0DCE70225EDE7022575E70000036A026ABA
S31508004ED070B522F001020262446882690D6822F008
S31508004EE073022A438D6823F002032B430A4DA84216
S31508004EF00BD1CD6823F008032B4324F44074D1E981
S31508004F000556354323F004032C43446082614A68FE
S31508004F104263036270BD00BF002C0140036A026A47
S31508004F2070B522F4807202624468C2690D6822F084
S31508004F3073022A438D6823F4007343EA05230B4D55
S31508004F40A8420DD1CD6823F4006343EA052324F46F
S31508004F504054D1E90556354323F4806344EA0514E1
S31508004F604460C2614A68C263036270BD002C014096
S31508004F70036A026A30B522F4805202624468C26942
S31508004F800D6822F4E64242EA05228D6823F40053AE
S31508004F9043EA0533064DA84202BF4D6924F480440E
S31508004FA044EA85144460C2614A680264036230BDFB
S31508004FB0002C014090F83D30012B20D1022380F8C7
S31508004FC03D300368DA6842F00102DA600D4A93421E
S31508004FD00AD0B3F1804F07D0A2F59432934203D09A
S31508004FE002F58062934204D19A6802F00702062A03
S31508004FF003D01A6842F001021A60002070470120A7
S31508005000704700BF002C01407047704770477047D3
S31508005010036810B51A69044691070ED5DA6892072F
S315080050200BD56FF002021A61012202779B699B0772
S3150800503077D0FFF7EAFF0023237723681A6950071A
S3150800504010D5DA6851070DD56FF004021A610222ED
S3150800505022779B69204613F4407F68D0FFF7D5FF77
S315080050600023237723681A6912070FD5DA68100711
S315080050700CD56FF008021A6104222277DB692046F4
S3150800508099075AD0FFF7C1FF0023237723681A69C7
S31508005090D20610D5DA68D0060DD56FF010021A615F
S315080050A008222277DB69204613F4407F4BD0FFF7AE
S315080050B0ACFF0023237723681A69D10708D5DA6875
S315080050C0D20705D56FF0010220461A61FDF72EF8C2
S315080050D023681A69100608D5DA68110605D56FF02F
S315080050E0800220461A6100F07CFA23681A69520683
S315080050F008D5DA68500605D56FF0400220461A61D1
S31508005100FFF785FF23681A69910622D5DA689206A1
S315080051101FD56FF020022046BDE810401A6100F046
S315080051205FBAFFF771FF2046FFF770FF83E7FFF7C7
S315080051306BFF2046FFF76AFF92E7FFF765FF2046F9
S31508005140FFF764FFA0E7FFF75FFF2046FFF75EFF64
S31508005150AFE710BD1A4A036890420AD0B0F1804FF3
S3150800516007D0A2F59432904203D002F580629042AD
S3150800517015D14A6823F070031343114A90420AD0A6
S31508005180B0F1804F07D0A2F59432904203D002F5D1
S315080051908062904203D1CA6823F4407313434A6974
S315080051A023F08003134303608B68C3620B68836232
S315080051B0034B984204BF0B6903630123436170479D
S315080051C0002C014010B5044630B390F83D3003F08A
S315080051D0FF021BB980F83C20FDF77AFB0223206802
S315080051E084F83D30211DFFF7B5FF0123002084F820
S315080051F0463084F83E3084F83F3084F8403084F8EE
S31508005200413084F8423084F8433084F8443084F8D6
S31508005210453084F83D3010BD0120FCE710B5044642
S3150800522030B390F83D3003F0FF021BB980F83C20FC
S31508005230FDF76CFB0223206884F83D30211DFFF73B
S3150800524089FF0123002084F8463084F83E3084F82C
S315080052503F3084F8403084F8413084F8423084F88E
S31508005260433084F8443084F8453084F83D3010BD26
S315080052700120FCE7036A026A70B522F01002026296
S31508005280446882690D6822F4E64242EA05228D687E
S3150800529023F0200343EA05130B4DA8420DD1CD6830
S315080052A023F0800343EA051324F44064D1E9055644
S315080052B0354323F0400344EA8504446082614A6822
S315080052C08263036270BD00BF002C014070B590F880
S315080052D03C300546012B50D00123082A80F83C3083
S315080052E03BD007D8C2B1042A27D01846002385F830
S315080052F03C3070BD0C2AF8D10068FFF739FEC36947
S315080053000A6943F40063C361C36923F48063C36114
S31508005310C36943EA02232EE00068FFF7D7FD8369D5
S315080053200A6943F008038361836923F004038361F0
S315080053308369134383610020D8E70068FFF79AFF63
S3150800534083690A6943F400638361836923F480638C
S315080053508361836943EA0223ECE70068FFF7DEFD11
S31508005360C3690A6943F00803C361C36923F00403E8
S31508005370C361C3691343C361DDE70220B9E710B50A
S3150800538084680A4324F47F4442EA03222243826063
S3150800539010BD38B590F83C300446012B4FF002009A
S315080053A000F08E80012284F83D00206884F83C20B5
S315080053B0836823F47F4323F0770383600B68602BAD
S315080053C04FD032D8402B64D016D8202B0DD00AD80F
S315080053D033F0100109D0012384F83D30002384F806
S315080053E03C30104638BD302BF5D1826822F0700269
S315080053F0134343F0070328E0502BECD14A68CD68E5
S31508005400016A036A21F00A0123F001030362836932
S315080054100A4323F0F00343EA0513836102628368B3
S3150800542023F0700343F057030FE0B3F5805F0DD008
S31508005430B3F5005F0CD0702BCDD1CB68D1E9012133
S31508005440FFF79DFF836843F0770383600022C2E776
S31508005450CB68D1E90121FFF792FF836843F48043C3
S31508005460F3E7036A026A4D6822F01002C96802620D
S31508005470826923F0A00322F4704243EA051342EA44
S31508005480013282610362836823F0700343F0670385
S31508005490DBE74A68CD68016A036A21F00A0123F04E
S315080054A00103036283690A4323F0F00343EA051301
S315080054B083610262836823F0700343F04703C4E7FD
S315080054C002468EE710B50124036A01F01F018C40DD
S315080054D023EA04030362036A8A401A43026210BD80
S315080054E008B529B990F83E30012B21D0012008BD16
S315080054F0042907D190F83F30012BF7D1022380F811
